:100000000C9434000C9451000C9451000C94510049
:100010000C9451000C9451000C9451000C9451001C
:100020000C9451000C9451000C9451000C94360126
:100030000C9451000C9451000C9451000C945100FC
:100040000C9451000C9451000C9451000C945100EC
:100050000C9451000C9451000C9451000C945100DC
:100060000C9451000C94510011241FBECFEFD8E026
:10007000DEBFCDBF11E0A0E0B1E0EAE9FBE002C0E5
:1000800005900D92A438B107D9F721E0A4E8B1E0BA
:1000900001C01D92A439B207E1F70E9481020C94BD
:1000A000CB050C9400002091840030918500809154
:1000B000840090918500821B930B80389E43B8F397
:1000C0000895CF93DF93EC01209719F4DF91CF913E
:1000D00008950E9453002197F7CF8AB1806E8AB9A4
:1000E0008BB18F718BB9209A85B1807185B9539886
:1000F0005B9A3D98459A08950F931F93CF93DF9392
:10010000CDB7DEB7A8970FB6F894DEBF0FBECDBF50
:100110008C011F938F9386E191E09F938F930E94B0
:10012000D3025C988FE39CE90197F1F700C00000CF
:10013000C8010E944D0268E270E08E010F5F1F4F00
:10014000C8010E9462025C9A8FE39CE90197F1F773
:1001500000C000001F930F9382E291E09F938F9362
:100160000E94D3020FB6F894DEBF0FBECDBFA89693
:100170000FB6F894DEBF0FBECDBFDF91CF911F91B8
:100180000F91089588E091E0909391018093900100
:10019000519A50981092C50080E18093C400E1EC20
:1001A000F0E080818860808380818061808386E048
:1001B0008093C200E0ECF0E080818260808308954B
:1001C0009091C00095FFFCCF8093C6000895CF9317
:1001D000C82F8A3019F48DE00E94E0008C2F0E9415
:1001E000E00080E090E0CF9108958091C00087FF0B
:1001F000FCCF8091C60008958091C000881F882799
:10020000881F0895CF93DF93EC018991811103C07A
:10021000DF91CF9108950E94E000F7CFCF92DF9257
:10022000EF92FF921F93CF93DF93EC01E12CF12C1F
:10023000615071096B010E94F500182F0E94E000C7
:100240001A3051F41882C701DF91CF911F91FF90AE
:10025000EF90DF90CF9008951D30A1F319938FEFA9
:10026000E81AF80ACE14DF0431F7ECCF1F921FB65C
:100270001F9211248F939F93809188009091890001
:100280008F529F4F909389008093880080918D01B9
:10029000811529F080918D018F5F80938D01809170
:1002A0008C01811529F080918C018F5F80938C01E6
:1002B00080918D01843209F46FC060F58C3009F4AF
:1002C00059C0F0F4811509F447C0843009F44AC0DC
:1002D00080918C018A3209F4B7C008F08FC0823156
:1002E00009F4A7C008F080C0823009F4A6C08A30A3
:1002F00009F499C09F918F911F901FBE1F90189570
:10030000843109F441C08C3119F793B180918A018D
:10031000947036C08C3309F452C078F48C3209F4EE
:1003200045C08433A9F683B190918A0182FB882766
:1003300080F98295880F807E23C0843409F44AC0F6
:100340008C3431F61A9B10C080918A018093890108
:1003500081E080938B0108C01A99BACF81E0809325
:100360008D01B6CF1A9B03C010928D01B1CF1092B0
:100370008A01AECF83B190918A0182FB882780F9F0
:10038000892B80938A01A4CF83B190918A0182FB4B
:10039000882780F9880FF4CF83B190918A0182FB7E
:1003A000882780F9880F880F880FEACF83B1909152
:1003B0008A0182FB882780F98295807FE1CF83B113
:1003C00090918A0182FB882780F98295880F880F97
:1003D000807CD6CF83B190918A0182FB882780F9F7
:1003E000879588278795CCCF8A3149F1823209F0E9
:1003F00081CF8091880183FF20C019C0823471F1C0
:1004000050F4823331F18A3309F074CF809188013E
:1004100086FF13C00CC08A3451F0823509F06ACFD0
:1004200010928C0167CF8091880180FF06C0299AC5
:1004300061CF8091880181FDFACF29985BCF8091AF
:10044000880182FFFACFF3CF8091880184FFF5CF36
:10045000EECF8091880185FFF0CFE9CF80918801B0
:1004600087FFEBCFE4CF219A299A549A5C9AE1E86E
:10047000F0E0808181608083EFE6F0E0808182603F
:1004800080837894089590918C019111FCCF809392
:10049000880181E080938C010895CF93DF93EC0174
:1004A0008991811103C0DF91CF9108950E94430289
:1004B000F7CF80918B018130E1F710928B01809111
:1004C00089010895EF92FF920F931F93CF93DF93CB
:1004D000EC0100E010E0615071097B010E945902BB
:1004E0008A3041F41882DF91CF911F910F91FF90D4
:1004F000EF900895E016F106A9F389930F5F1F4F5F
:10050000EDCFCF93DF93CDB7DEB7C055D1090FB68E
:10051000F894DEBF0FBECDBF0E946D000E94C200E6
:100520000E9433022FEF89E698E1215080409040ED
:10053000E1F700C0000081E391E00E947C008FE3BE
:1005400091E00E947C0088E491E00E947C0082E5BA
:1005500091E00E947C008CE591E00E947C0086E6A0
:1005600091E00E947C008FE691E00E947C0089E788
:1005700091E00E947C008E010F5F1F4F80918B01E4
:100580008130E1F760E570E0C8010E946202F80185
:1005900001900020E9F73E97E017F10779F7C801CD
:1005A0000E94E902EBCFA0E0B0E0E9EDF2E00C94AC
:1005B000A405AE014B5F5F4FFA0161917191AF01EC
:1005C00080919001909191010E941503E2E00C94BA
:1005D000C0050F931F93CF93DF93E0919001F091AB
:1005E0009101238100E010E021FD0EC00FEF1FEF0D
:1005F000C801DF91CF911F910F9108950995892B23
:1006000011F00FEF1FEFCE01EC0189916091900185
:1006100070919101DB011896ED91FC918111EECF63
:100620008AE00995892B21F3E1CFABE0B0E0EBE163
:10063000F3E00C9497056C017B018A01FC011782A1
:100640001682838181FFC9C19AE0592EF601238168
:10065000F70123FD859123FF81917F01811509F425
:1006600059C1853239F423FD959123FF91917F0182
:10067000953229F4B60190E00E940605E7CF912C4F
:10068000612C712CF0E27F1640F59B32D9F058F4C2
:100690009032D1F09332F1F09E3299F576FC3AC166
:1006A000689476F806C09D3291F09033C1F4689456
:1006B00070F8F70123FD959123FF91917F0191112E
:1006C000E1CF26C0689471F8689472F8F2CF68940C
:1006D00073F8EFCF689474F8ECCF77FC19C080ED15
:1006E000890F8A30C8F676FE05C0959C800D1124CE
:1006F000982EDFCF659C800D1124682E689475F8C4
:10070000D8CF9C3619F4689477F8D3CF983689F20D
:10071000892F8F7D8554833008F488C0933609F47F
:10072000A4C0933709F4A7C0933509F4B3C0943635
:1007300019F0993609F0DDC0F80177FED3C0619158
:100740007191819191918F01272D2F76822E97FFA4
:1007500009C090958095709561957F4F8F4F9F4F01
:10076000689487F82AE030E0AE014F5F5F4F5A018E
:100770000E9436058A19A82EBA2C782C86FE0CC049
:10078000E89470F8A91440F484FE05C082FC03C00C
:10079000F82DFE7E7F2EB92C74FEF8C0FE01EA0D06
:1007A000F11D8081803309F0EAC0272D297E722E49
:1007B00073FC0EC070FEF9C09A2CB61418F4960C97
:1007C0009B18B62C862D8B196B1408F480E0B80E9C
:1007D000B61408F0ECC06B1874FEEBC0B60180E3F1
:1007E00090E00E94060572FE09C088E590E071FC69
:1007F00002C088E790E0B6010E940605A91408F43B
:10080000E5C0AA94B12C4FEFA41AB40ACE01019608
:100810004C01A80EB91EF50182915F01B60190E06E
:100820000E9406058A149B04B1F715C00C5F1F4F88
:100830008FE3898388248394912CAE014F5F5F4FAF
:100840005A01E89477F873FC03C08614910498F178
:1008500081149104B9F5611409F4F8CEB60180E26F
:1008600090E00E9406056A94F6CFF80180818983A2
:100870000E5F1F4FDFCFF801A190B1908F01692D5E
:1008800070E076FC02C06FEF7FEFC5010E94FB04B1
:100890004C01D7CFF801A190B1908F01692D70E084
:1008A00076FC02C06FEF7FEFC5010E94F0044C019F
:1008B000689477F8C8CFB60180E290E00E94060500
:1008C0006A94C3CFF50177FC859177FE81915F0132
:1008D000B60190E00E94060561106A94F1E08F1A5B
:1008E0009108B6CF61917191072E000C880B990B7E
:1008F0002ACF872CE89484F82AE030E0953739F144
:10090000572D597F852E9037A9F058F49835A9F0C6
:100910009F36D9F0F601868197812B96EFE00C94F3
:10092000B3059837B9F784FE02C0689482F820E1D5
:1009300030E00DC0689484F8F6CF74FE03C0852FB4
:100940008660882E20E132E002C028E030E0F80125
:1009500087FE10C061917191819191918F01FE018B
:1009600031965F01AF010E9436058A19A82EE894DE
:1009700087F802CF6191719180E090E0EFCF72FC37
:1009800002C0B39415CFB394B39412CF872D867859
:10099000811509F40DCFF5CFB60180E290E00E94F9
:1009A000060583948614C0F30DCF8B2CFBCF612CEE
:1009B00013CF872D8678811509F420CF80E271FC52
:1009C0008BE277FC8DE2B60190E016CFB60180E3B2
:1009D00090E00E9406059A9411CF8FEF9FEF9DCF74
:1009E000FC010590615070400110D8F780959095FA
:1009F0008E0F9F1F0895FC016150704001900110FF
:100A0000D8F7809590958E0F9F1F08950F931F9391
:100A1000CF93DF93182F092FEB018B8181FD09C044
:100A20001FEF0FEF812F902FDF91CF911F910F912B
:100A3000089582FF14C02E813F818C819D812817EB
:100A400039073CF4E881F981CF01019699838883C5
:100A500010838E819F8101969F838E83E3CFE885EB
:100A6000F985812F0995892BA1F3DACFFA01AA27FD
:100A7000283051F1203181F1E8946F936E7F6E5FE1
:100A80007F4F8F4F9F4FAF4FB1E03ED0B4E03CD08F
:100A9000670F781F891F9A1FA11D680F791F8A1F72
:100AA000911DA11D6A0F711D811D911DA11D20D0D9
:100AB00009F468943F912AE0269F11243019305D93
:100AC0003193DEF6CF010895462F4770405D419384
:100AD000B3E00FD0C9F7F6CF462F4F70405D4A33D1
:100AE00018F0495D31FD4052419302D0A9F7EACF99
:100AF000B4E0A6959795879577956795BA95C9F7C8
:100B000000976105710508959B01AC010A2E0694BA
:100B10005795479537952795BA95C9F7620F731F73
:100B2000841F951FA01D08952F923F924F925F92B0
:100B30006F927F928F929F92AF92BF92CF92DF92ED
:100B4000EF92FF920F931F93CF93DF93CDB7DEB752
:100B5000CA1BDB0B0FB6F894DEBF0FBECDBF0994E6
:100B60002A88398848885F846E847D848C849B843D
:100B7000AA84B984C884DF80EE80FD800C811B814B
:100B8000AA81B981CE0FD11D0FB6F894DEBF0FBE7A
:0A0B9000CDBFED010895F894FFCFEA
:100B9A0096009600960096000000000200000000F1
:100BAA00E70000000000436F6D6D616E643A202516
:100BBA007300526573706F6E73653A2025730D0A60
:100BCA000041542B44564944464243440D0A0041CD
:100BDA00542B5645520D0A0041542B424155440D9F
:100BEA000A0041542B524649440D0A0041542B44F1
:100BFA005649440D0A0041542B5246430D0A0041FE
:100C0A00542B504F57450D0A0041542B434C535314
:040C1A000D0A0000BF
:00000001FF
