:100000000C9452000C946F000C946F000C946F00D1
:100010000C946F000C946F000C946F000C946F00A4
:100020000C946F000C946F000C946F000C94890278
:100030000C946F000C946F000C9471000C946F0082
:100040000C946F000C946F000C946F000C946F0074
:100050000C946F000C946F000C946F000C946F0064
:100060000C946F000C946F004E414E494E49545908
:10007000494E46CDCCCC3D0AD7233C17B7D1387773
:10008000CC2B329595E6241FB14F0A000020410089
:1000900000C84200401C4620BCBE4CCA1B0E5AAED3
:1000A000C59D740011241FBECFEFD8E0DEBFCDBFC9
:1000B00011E0A0E0B1E0E4E9F4E102C005900D92A6
:1000C000A43EB107D9F721E0A4EEB1E001C01D9232
:1000D000A43FB207E1F70E94D4030C94480A0C94A1
:1000E00000001F921FB61F9211242F933F938F93EE
:1000F0009F9387B5815687BD8091E4019091E5017A
:1001000001969093E5018093E4012091E401309100
:10011000E50180910201909103012817390709F444
:100120005F982091E4013091E50180910001909168
:1001300001012817390709F428988091E40190916A
:10014000E501803D974034F01092E5011092E40102
:100150005F9A289A9F918F913F912F911F901FBE78
:100160001F901895F89414BC15BC16BC8FE987BD78
:1001700085B5886085BD85B5816085BDEEE6F0E01A
:1001800080818260808378940895E1E8F0E0808146
:100190008160808308952091840030918500809152
:1001A000840090918500821B930B80389E43B8F3A6
:1001B0000895CF93DF93EC01209719F4DF91CF914D
:1001C00008950E94CB002197F7CF9C0181E086BB68
:1001D00086E090E019992BC081E086BB86E090E034
:1001E000199B2FC081E086BB40918400509185000F
:1001F00060E070E080E090E0E1E0821793078CF12E
:1002000020918400309185002417350710F4615047
:100210007109072E000C880B990BCB0177276627F5
:10022000241B350B620F731F811D911D0895B09B18
:10023000D1CF41E046BB019769F660E070E0CB01A9
:100240000895B09BCDCF41E046BB0197B1F3C8CF35
:10025000B09B07C0E6BB6F5F7F4F6130F4E07F0764
:1002600064F71999F5CF199B02C00196C6CFB09BD0
:10027000FACFE6BB6F5F7F4F6130F4E07F079CF3FE
:10028000DCCF80E480937C0087E880937A00089537
:1002900020917C00287F87709927822B80937C0097
:1002A00080917A00806480937A0080917A0086FD44
:1002B000FCCF809178009091790008958F929F9261
:1002C000AF92BF92EF92FF920F931F93CF93DF9362
:1002D000CDB7DEB7E2970FB6F894DEBF0FBECDBF45
:1002E000790121E1E2E1F1E0DE01929601900D92C7
:1002F0002A95E1F719A20FE110E04A01550FAA086B
:10030000BB081616170618061906F4F01E141F046B
:10031000DCF0C801019621E030E02C0F3D1F820F78
:10032000931F0E945502E2960FB6F894DEBF0FBEEF
:10033000CDBFDF91CF911F910F91FF90EF90BF90B4
:10034000AF909F908F900895A50194010E946B0437
:10035000E2E2F0E0EC0FFD1F6E0F7F1FFB018081DA
:10036000E1E0F0E0EC0FFD1FE00FF11F8083B90129
:10037000CA01E114F10419F0F1E0EF1AF10801509B
:100380001109BFCF2198299A8AB18C6F8AB98BB194
:1003900083708BB9209A85B1807185B908950F93C8
:1003A0001F93CF93DF93CDB7DEB7A8970FB6F8941E
:1003B000DEBF0FBECDBF8C011F938F9383E291E010
:1003C0009F938F930E94B0045C988FE39CE9019700
:1003D000F1F700C00000C8010E94A00368E270E0CD
:1003E0008E010F5F1F4FC8010E94B5035C9A8FE317
:1003F0009CE90197F1F700C000001F930F938FE273
:1004000091E09F938F930E94B0040FB6F894DEBFE3
:100410000FBECDBFA8960FB6F894DEBF0FBECDBFFE
:10042000DF91CF911F910F91089584E091E0909317
:10043000EF018093EE01519A50981092C50080E12F
:100440008093C400E1ECF0E080818860808380814B
:100450008061808386E08093C200E0ECF0E08081E0
:100460008260808308959091C00095FFFCCF8093B7
:10047000C6000895CF93C82F8A3019F48DE00E94EA
:1004800033028C2F0E94330280E090E0CF910895D8
:100490008091C00087FFFCCF8091C60008958091B5
:1004A000C000881F8827881F0895CF93DF93EC0131
:1004B0008991811103C0DF91CF9108950E94330289
:1004C000F7CFCF92DF92EF92FF921F93CF93DF93FC
:1004D000EC01E12CF12C615071096B010E94480282
:1004E000182F0E9433021A3051F41882C701DF918D
:1004F000CF911F91FF90EF90DF90CF9008951D3026
:10050000A1F319938FEFE81AF80ACE14DF0431F73C
:10051000ECCF1F921FB61F9211248F939F9380914F
:100520008800909189008F529F4F9093890080930B
:1005300088008091EB01811529F08091EB018F5F9C
:100540008093EB018091EA01811529F08091EA0105
:100550008F5F8093EA018091EB01843209F46FC0D0
:1005600060F58C3009F459C0F0F4811509F447C0E6
:10057000843009F44AC08091EA018A3209F4B7C094
:1005800008F08FC0823109F4A7C008F080C0823023
:1005900009F4A6C08A3009F499C09F918F911F90E9
:1005A0001FBE1F901895843109F441C08C3119F792
:1005B00093B18091E801947036C08C3309F452C035
:1005C00078F48C3209F445C08433A9F683B1909154
:1005D000E80182FB882780F98295880F807E23C0FE
:1005E000843409F44AC08C3431F61A9B10C08091CF
:1005F000E8018093E70181E08093E90108C01A993E
:10060000BACF81E08093EB01B6CF1A9B03C0109262
:10061000EB01B1CF1092E801AECF83B19091E80128
:1006200082FB882780F9892B8093E801A4CF83B1CE
:100630009091E80182FB882780F9880FF4CF83B17D
:100640009091E80182FB882780F9880F880F880F36
:10065000EACF83B19091E80182FB882780F98295E7
:10066000807FE1CF83B19091E80182FB882780F9F8
:100670008295880F880F807CD6CF83B19091E80156
:1006800082FB882780F9879588278795CCCF8A3188
:1006900049F1823209F081CF8091E60183FF20C0C9
:1006A00019C0823471F150F4823331F18A3309F088
:1006B00074CF8091E60186FF13C00CC08A3451F0DC
:1006C000823509F06ACF1092EA0167CF8091E60186
:1006D00080FF06C0299A61CF8091E60181FDFACFA3
:1006E00029985BCF8091E60182FFFACFF3CF80910A
:1006F000E60184FFF5CFEECF8091E60185FFF0CFD4
:10070000E9CF8091E60187FFEBCFE4CF219A299AC8
:10071000549A5C9AE1E8F0E0808181608083EFE6A2
:10072000F0E0808182608083789408959091EA015E
:100730009111FCCF8093E60181E08093EA01089556
:10074000CF93DF93EC018991811103C0DF91CF91A9
:1007500008950E949603F7CF8091E9018130E1F777
:100760001092E9018091E7010895EF92FF920F93B3
:100770001F93CF93DF93EC0100E010E0615071090B
:100780007B010E94AC038A3041F41882DF91CF9143
:100790001F910F91FF90EF900895E016F106A9F3D5
:1007A00089930F5F1F4FEDCFCF93DF93CDB7DEB7A8
:1007B000CA55D1090FB6F894DEBF0FBECDBF0E9457
:1007C00015020E9486032FEF89E698E121508040B0
:1007D0009040E1F700C000008EE391E00E94C60463
:1007E0008DE491E00E94CF018BE591E00E94CF0162
:1007F00084E691E00E94CF018EE691E00E94CF0155
:1008000088E791E00E94CF0182E891E00E94CF0149
:100810008BE891E00E94CF0185E991E00E94CF0131
:1008200053985B9A8AB180668AB980E887BD84B59F
:10083000806884BD84B5836084BD85B5816085BDD5
:100840008FE991E00E94C6048E010F5F1F4F8CE27A
:10085000E82E81E0F82E90E8D92E8091E9018130D0
:1008600091F560E570E0C8010E94B50385E0F801EC
:10087000DE01AA5ABF4F01900D928A95E1F7888553
:1008800062968FAF6297898563968FAF63978A85EB
:1008900064968FAF64978B8565968FAF6597CE0111
:1008A0008A5A9F4F0E94AC04CE018F5A9F4F0E94DC
:1008B000AC041F930F93FF92EF920E94B0040F902D
:1008C0000F900F900F90D7BC8FE39CE90197F1F741
:1008D00000C00000C2CF052E97FB1EF400940E94BA
:1008E000820457FD07D00E948A0407FC03D04EF40F
:1008F0000C94820450954095309521953F4F4F4F71
:100900005F4F089590958095709561957F4F8F4FBB
:100910009F4F0895A1E21A2EAA1BBB1BFD010DC01B
:10092000AA1FBB1FEE1FFF1FA217B307E407F5079F
:1009300020F0A21BB30BE40BF50B661F771F881F7B
:10094000991F1A9469F760957095809590959B0111
:10095000AC01BD01CF010895662777270C94CD0621
:10096000A0E0B0E0E6EBF4E00C94120AAE014B5FBD
:100970005F4FFA0161917191AF018091EE01909109
:10098000EF010E94F204E2E00C942E0A0F931F93F1
:10099000CF93DF93E091EE01F091EF01238100E02E
:1009A00010E021FD0EC00FEF1FEFC801DF91CF91C6
:1009B0001F910F9108950995892B11F00FEF1FEFEB
:1009C000CE01EC0189916091EE017091EF01DB01A4
:1009D0001896ED91FC918111EECF8AE00995892B53
:1009E00021F3E1CFABE0B0E0E8EFF4E00C94050ACE
:1009F0006C017B018A01FC0117821682838181FFD1
:100A0000C9C19AE0592EF6012381F70123FD859192
:100A100023FF81917F01811509F459C1853239F491
:100A200023FD959123FF91917F01953229F4B60121
:100A300090E00E944208E7CF912C612C712CF0E2EB
:100A40007F1640F59B32D9F058F49032D1F09332B2
:100A5000F1F09E3299F576FC3AC1689476F806C0BA
:100A60009D3291F09033C1F4689470F8F70123FD42
:100A7000959123FF91917F019111E1CF26C0689458
:100A800071F8689472F8F2CF689473F8EFCF6894B5
:100A900074F8ECCF77FC19C080ED890F8A30C8F666
:100AA00076FE05C0959C800D1124982EDFCF659CA5
:100AB000800D1124682E689475F8D8CF9C3619F4EF
:100AC000689477F8D3CF983689F2892F8F7D855433
:100AD000833008F488C0933609F4A4C0933709F42E
:100AE000A7C0933509F4B3C0943619F0993609F0CC
:100AF000DDC0F80177FED3C0619171918191919130
:100B00008F01272D2F76822E97FF09C09095809513
:100B1000709561957F4F8F4F9F4F689487F82AE0BB
:100B200030E0AE014F5F5F4F5A010E9472088A1990
:100B3000A82EBA2C782C86FE0CC0E89470F8A91464
:100B400040F484FE05C082FC03C0F82DFE7E7F2E9B
:100B5000B92C74FEF8C0FE01EA0DF11D80818033CE
:100B600009F0EAC0272D297E722E73FC0EC070FE9C
:100B7000F9C09A2CB61418F4960C9B18B62C862D36
:100B80008B196B1408F480E0B80EB61408F0ECC0B2
:100B90006B1874FEEBC0B60180E390E00E9442083F
:100BA00072FE09C088E590E071FC02C088E790E021
:100BB000B6010E944208A91408F4E5C0AA94B12C19
:100BC0004FEFA41AB40ACE0101964C01A80EB91E2B
:100BD000F50182915F01B60190E00E9442088A14FB
:100BE0009B04B1F715C00C5F1F4F8FE389838824E6
:100BF0008394912CAE014F5F5F4F5A01E89477F8D0
:100C000073FC03C08614910498F181149104B9F522
:100C1000611409F4F8CEB60180E290E00E94420827
:100C20006A94F6CFF801808189830E5F1F4FDFCF72
:100C3000F801A190B1908F01692D70E076FC02C09F
:100C40006FEF7FEFC5010E9437084C01D7CFF80145
:100C5000A190B1908F01692D70E076FC02C06FEF1A
:100C60007FEFC5010E942C084C01689477F8C8CF2B
:100C7000B60180E290E00E9442086A94C3CFF50179
:100C800077FC859177FE81915F01B60190E00E942B
:100C9000420861106A94F1E08F1A9108B6CF619111
:100CA0007191072E000C880B990B2ACF872CE894A2
:100CB00084F82AE030E0953739F1572D597F852E99
:100CC0009037A9F058F49835A9F09F36D9F0F6017D
:100CD000868197812B96EFE00C94210A9837B9F71B
:100CE00084FE02C0689482F820E130E00DC0689470
:100CF00084F8F6CF74FE03C0852F8660882E20E12D
:100D000032E002C028E030E0F80187FE10C06191B7
:100D10007191819191918F01FE0131965F01AF0137
:100D20000E9472088A19A82EE89487F802CF619170
:100D3000719180E090E0EFCF72FC02C0B39415CFC8
:100D4000B394B39412CF872D8678811509F40DCF13
:100D5000F5CFB60180E290E00E94420883948614A9
:100D6000C0F30DCF8B2CFBCF612C13CF872D867852
:100D7000811509F420CF80E271FC8BE277FC8DE2D3
:100D8000B60190E016CFB60180E390E00E944208E1
:100D90009A9411CF8FEF9FEF9DCFA0E0B0E0E3EDED
:100DA000F6E00C94080AEC016B016115710519F06D
:100DB000FB01918380837E012196F7010081802FC2
:100DC00090E00E940B085C01892BA9F70D3281F598
:100DD0000881219611E07E01F1E0EF1AF10843E06D
:100DE00050E060E770E0C7010E941408892B39F5D4
:100DF0007E0182E0E80EF11C45E050E06BE670E019
:100E0000C7010E941408892B11F427967E01C11492
:100E1000D10419F0F601F182E08260E070E080E830
:100E20009FEF111120C060E070E080E89FE71BC0D9
:100E30000B3219F40881E701229610E0CCCF43E091
:100E400050E068E670E0C7010E941408892B81F425
:100E5000C114D10421F02296F601D183C08360E051
:100E600070E080EC9FE7CDB7DEB7ECE00C94240A8D
:100E7000E12CF12C20E030E0A90100530A3058F5B4
:100E8000E12FE260812F887012FF08C0811103C03A
:100E9000FFEFEF1AFF0A09911E2FEFCF811519F00E
:100EA00081E0E81AF108A5E0B0E00E94F7099B0193
:100EB000AC01220F331F441F551F200F311D411D50
:100EC000511D2839F9E93F074F07F9E15F0718F38A
:100ED000E12FE660E0CF0E3F29F413FD3BC0E12F88
:100EE000E860D9CF0F7D0531A9F588818D3241F4B5
:100EF0001061BE016E5F7F4F8981E2E0F0E007C0C4
:100F0000BE018B32B9F36F5F7F4FE1E0F0E08053B9
:100F100095E0EB01CE1BDF0B8A30E0F4E0E8AE1683
:100F2000ECE0BE0654F49A9DF0019B9DF00D112457
:100F3000EE0FFF1F5F01A80EB11CEB0189918053DA
:100F40008A3008F458C014FF03C0B194A194B108CA
:100F5000EA0CFB1C11FF07C0C114D10421F021973A
:100F6000F601D183C083CA01B9010E94D508382F88
:100F7000292FCB01A32FB22FBC01CD011370133049
:100F800009F490584B015C0120E030E0A9010E9477
:100F9000D008811569F1CFE9D0E0F7FE05C0F194E2
:100FA000E194F108C7E8D0E06E01F8E1CF1AD1086A
:100FB00000E210E0E016F10604F524971595079578
:100FC000CC15DD05B9F78A2D880F8B2D881F8F3F33
:100FD00049F020E030E0A901C501B4010E94D00829
:100FE000811106C082E290E09093F3018093F201B8
:100FF000C501B40138CFBE0191CFFE0125913591D5
:1010000045915491C501B4010E9436094B015C0120
:10101000E01AF10ACFCF91110C94A309803219F094
:1010200089508550C8F70895FB01DC0141505040BC
:1010300088F08D9181341CF08B350CF4805E6591C5
:1010400061341CF06B350CF4605E861B611171F32A
:10105000990B0895881BFCCFFC01059061507040EE
:101060000110D8F7809590958E0F9F1F0895FC0171
:101070006150704001900110D8F7809590958E0FC7
:101080009F1F08950F931F93CF93DF93182F092F5E
:10109000EB018B8181FD09C01FEF0FEF812F902F96
:1010A000DF91CF911F910F91089582FF14C02E817F
:1010B0003F818C819D81281739073CF4E881F981B3
:1010C000CF0101969983888310838E819F81019639
:1010D0009F838E83E3CFE885F985812F0995892B3E
:1010E000A1F3DACFFA01AA27283051F1203181F19A
:1010F000E8946F936E7F6E5F7F4F8F4F9F4FAF4F20
:10110000B1E03ED0B4E03CD0670F781F891F9A1F32
:10111000A11D680F791F8A1F911DA11D6A0F711DE6
:10112000811D911DA11D20D009F468943F912AE0F2
:10113000269F11243019305D3193DEF6CF010895DA
:10114000462F4770405D4193B3E00FD0C9F7F6CF0B
:10115000462F4F70405D4A3318F0495D31FD4052D3
:10116000419302D0A9F7EACFB4E0A6959795879569
:1011700077956795BA95C9F7009761057105089548
:101180009B01AC010A2E06945795479537952795F4
:10119000BA95C9F7620F731F841F951FA01D08958C
:1011A0000E94120908F481E00895E89409C097FBB1
:1011B0003EF490958095709561957F4F8F4F9F4F2E
:1011C0009923A9F0F92F96E9BB279395F695879572
:1011D00077956795B795F111F8CFFAF4BB0F11F435
:1011E00060FF1BC06F5F7F4F8F4F9F4F16C08823DC
:1011F00011F096E911C0772321F09EE8872F762F12
:1012000005C0662371F096E8862F70E060E02AF052
:101210009A95660F771F881FDAF7880F969587953E
:1012200097F90895990F0008550FAA0BE0E8FEEF13
:1012300016161706E807F907C0F012161306E4079A
:10124000F50798F0621B730B840B950B39F40A2693
:1012500061F0232B242B252B21F408950A2609F471
:10126000A140A6958FEF811D811D08950E94490917
:101270000C94BD090E94AF0938F00E94B60920F015
:10128000952311F00C94A6090C94AC0911240C942C
:10129000F1090E94CE0970F3959FC1F3950F50E0BC
:1012A000551F629FF001729FBB27F00DB11D639F18
:1012B000AA27F00DB11DAA1F649F6627B00DA11DBE
:1012C000661F829F2227B00DA11D621F739FB00D64
:1012D000A11D621F839FA00D611D221F749F3327D4
:1012E000A00D611D231F849F600D211D822F762F6D
:1012F0006A2F11249F5750409AF0F1F088234AF04A
:10130000EE0FFF1FBB1F661F771F881F91505040B5
:10131000A9F79E3F510580F00C94A6090C94F109A1
:101320005F3FE4F3983ED4F3869577956795B7953C
:10133000F795E7959F5FC1F7FE2B880F911D969556
:10134000879597F9089599278827089597F99F67B2
:1013500080E870E060E008959FEF80EC089500243D
:101360000A941616170618060906089500240A940A
:1013700012161306140605060895092E0394000C90
:1013800011F4882352F0BB0F40F4BF2B11F460FF1F
:1013900004C06F5F7F4F8F4F9F4F089557FD905848
:1013A000440F551F59F05F3F71F04795880F97FB29
:1013B000991F61F09F3F79F08795089512161306E3
:1013C0001406551FF2CF4695F1DF08C01616170612
:1013D0001806991FF1CF8695710561050894089547
:1013E000E894BB2766277727CB0197F908950E94D9
:1013F000390AA59F900DB49F900DA49F800D911D5B
:10140000112408952F923F924F925F926F927F9294
:101410008F929F92AF92BF92CF92DF92EF92FF9204
:101420000F931F93CF93DF93CDB7DEB7CA1BDB0BB0
:101430000FB6F894DEBF0FBECDBF09942A88398855
:1014400048885F846E847D848C849B84AA84B9845C
:10145000C884DF80EE80FD800C811B81AA81B98168
:10146000CE0FD11D0FB6F894DEBF0FBECDBFED017C
:101470000895A29FB001B39FC001A39F700D811D6D
:101480001124911DB29F700D811D1124911D08958D
:04149000F894FFCFFE
:101494009600960000000002000000003A020000DE
:1014A4000000303132333435363738394142434421
:1014B400454600436F6D6D616E643A20257300529A
:1014C4006573706F6E73653A2025730D0A000D0AFB
:1014D4004A44592D343020746573740D0041542BE3
:1014E40044564944424244420D0A0041542B564555
:1014F400520D0A0041542B424155440D0A004154F7
:101504002B524649440D0A0041542B445649440D7C
:101514000A0041542B5246430D0A0041542B504FAC
:1015240057450D0A0041542B434C53530D0A000DEB
:101534000A507265737320616E6420686F6C642056
:101544006120707573682D627574746F6E20617498
:1015540074616368656420746F205044332028707C
:10156400696E20352920746F207472616E736D6901
:04157400742E0D00C4
:00000001FF
