:100000000C9452000C946F000C946F000C946F00D1
:100010000C946F000C946F000C946F000C946F00A4
:100020000C946F000C946F000C946F000C945401AE
:100030000C946F000C946F000C946F000C946F0084
:100040000C946F000C946F000C946F000C946F0074
:100050000C946F000C946F000C946F000C946F0064
:100060000C946F000C946F004E414E494E49545908
:10007000494E46CDCCCC3D0AD7233C17B7D1387773
:10008000CC2B329595E6241FB14F0A000020410089
:1000900000C84200401C4620BCBE4CCA1B0E5AAED3
:1000A000C59D740011241FBECFEFD8E0DEBFCDBFC9
:1000B00011E0A0E0B1E0E4E1F2E102C005900D92B0
:1000C000A83AB107D9F721E0A8EAB1E001C01D9232
:1000D000AA3BB207E1F70E949F020C9408090C9416
:1000E00000002091840030918500809184009091DF
:1000F0008500821B930B80389E43B8F30895CF93FD
:10010000DF93EC01209719F4DF91CF9108950E94BD
:1001100071002197F7CF8AB1806E8AB98BB18F7148
:100120008BB9209A85B1807185B953985B9A3D98B7
:10013000459A08950F931F93CF93DF93CDB7DEB702
:10014000A8970FB6F894DEBF0FBECDBF8C011F93EA
:100150008F9386E191E09F938F930E944D035C986B
:100160008FE39CE90197F1F700C00000C8010E94ED
:100170006B0268E270E08E010F5F1F4FC8010E94A2
:1001800080025C9A8FE39CE90197F1F700C00000C0
:100190001F930F9382E291E09F938F930E944D03F0
:1001A0000FB6F894DEBF0FBECDBFA8960FB6F89479
:1001B000DEBF0FBECDBFDF91CF911F910F9108958C
:1001C00088E091E09093B5018093B401519A5098E2
:1001D0001092C50080E18093C400E1ECF0E08081E2
:1001E0008860808380818061808386E08093C20004
:1001F000E0ECF0E080818260808308959091C000FF
:1002000095FFFCCF8093C6000895CF93C82F8A3006
:1002100019F48DE00E94FE008C2F0E94FE0080E009
:1002200090E0CF9108958091C00087FFFCCF80912E
:10023000C60008958091C000881F8827881F0895F0
:10024000CF93DF93EC018991811103C0DF91CF91AE
:1002500008950E94FE00F7CFCF92DF92EF92FF92B7
:100260001F93CF93DF93EC01E12CF12C61507109C6
:100270006B010E941301182F0E94FE001A3051F4E6
:100280001882C701DF91CF911F91FF90EF90DF900F
:10029000CF9008951D30A1F319938FEFE81AF80A53
:1002A000CE14DF0431F7ECCF1F921FB61F9211243A
:1002B0008F939F9380918800909189008F529F4FD8
:1002C00090938900809388008091B101811529F075
:1002D0008091B1018F5F8093B1018091B001811550
:1002E00029F08091B0018F5F8093B0018091B101BE
:1002F000843209F46FC060F58C3009F459C0F0F411
:10030000811509F447C0843009F44AC08091B001D6
:100310008A3209F4B7C008F08FC0823109F4A7C04F
:1003200008F080C0823009F4A6C08A3009F499C070
:100330009F918F911F901FBE1F901895843109F4D3
:1003400041C08C3119F793B18091AE01947036C0E1
:100350008C3309F452C078F48C3209F445C08433EC
:10036000A9F683B19091AE0182FB882780F982952E
:10037000880F807E23C0843409F44AC08C3431F65F
:100380001A9B10C08091AE018093AD0181E08093F3
:10039000AF0108C01A99BACF81E08093B101B6CFFE
:1003A0001A9B03C01092B101B1CF1092AE01AECF33
:1003B00083B19091AE0182FB882780F9892B8093CD
:1003C000AE01A4CF83B19091AE0182FB882780F962
:1003D000880FF4CF83B19091AE0182FB882780F91A
:1003E000880F880F880FEACF83B19091AE0182FB0E
:1003F000882780F98295807FE1CF83B19091AE010B
:1004000082FB882780F98295880F880F807CD6CF61
:1004100083B19091AE0182FB882780F98795882768
:100420008795CCCF8A3149F1823209F081CF809112
:10043000AC0183FF20C019C0823471F150F48233C3
:1004400031F18A3309F074CF8091AC0186FF13C07B
:100450000CC08A3451F0823509F06ACF1092B00195
:1004600067CF8091AC0180FF06C0299A61CF80914F
:10047000AC0181FDFACF29985BCF8091AC0182FF5E
:10048000FACFF3CF8091AC0184FFF5CFEECF80910E
:10049000AC0185FFF0CFE9CF8091AC0187FFEBCFB6
:1004A000E4CF219A299A549A5C9AE1E8F0E080819D
:1004B00081608083EFE6F0E08081826080837894C1
:1004C00008959091B0019111FCCF8093AC0181E02F
:1004D0008093B0010895CF93DF93EC01899181114E
:1004E00003C0DF91CF9108950E946102F7CF809100
:1004F000AF018130E1F71092AF018091AD01089515
:10050000EF92FF920F931F93CF93DF93EC0100E0E4
:1005100010E0615071097B010E9477028A3041F43A
:100520001882DF91CF911F910F91FF90EF90089566
:10053000E016F106A9F389930F5F1F4FEDCFCF931C
:10054000DF93CDB7DEB7CC55D1090FB6F894DEBF37
:100550000FBECDBF6E0127E5C20ED11C86E0F601AD
:10056000282F11922A95E9F77E0191E5E90EF11CF9
:10057000F70111928A95E9F70E948B000E94E00032
:100580000E945102FFEF29E688E1F15020408040AF
:10059000E1F700C0000081E391E00E94630380E482
:1005A00091E00E949A008EE491E00E949A0087E513
:1005B00091E00E949A0081E691E00E949A008BE609
:1005C00091E00E949A0085E791E00E949A008EE7F0
:1005D00091E00E949A0088E891E00E949A008E01C2
:1005E0000F5F1F4F82E9882E81E0982E8091AF0126
:1005F0008130E1F760E570E0C8010E948002F801F7
:1006000001900020E9F73E97E017F10779F746E0FF
:1006100050E0B801C6010E943E03F60116824DE08B
:1006200050E0BE01685F7F4FC7010E943E03F701A3
:100630001682C6010E943A03B62EA72E782E692E86
:10064000C7010E943A039F938F937F936F936F929A
:100650007F92AF92BF929F928F921F930F930E94AF
:100660008F03C8010E9463030FB6F894DEBF0FBE6C
:10067000CDBFBCCF662777270C948D05FB01DC012D
:100680004150504048F001900D920020C9F701C040
:100690001D9241505040E0F70895A0E0B0E0E3E53E
:1006A000F3E00C94D208AE014B5F5F4FFA01619109
:1006B0007191AF018091B4019091B5010E94B20394
:1006C000E2E00C94EE080F931F93CF93DF93E09139
:1006D000B401F091B501238100E010E021FD0EC0CE
:1006E0000FEF1FEFC801DF91CF911F910F91089578
:1006F0000995892B11F00FEF1FEFCE01EC018991C5
:100700006091B4017091B501DB011896ED91FC91F7
:100710008111EECF8AE00995892B21F3E1CFAEE07C
:10072000B0E0E5E9F3E00C94D0080D891E8986E07D
:100730008C831A8309838FEF9FE79E838D83AE019D
:10074000475E5F4F6F89788DCE0101960E94B2039C
:100750002F813885020F131FF80110822E96E4E0D6
:100760000C94EC08ABE0B0E0E8EBF3E00C94C508C7
:100770006C017B018A01FC0117821682838181FF53
:10078000C9C19AE0592EF6012381F70123FD859115
:1007900023FF81917F01811509F459C1853239F414
:1007A00023FD959123FF91917F01953229F4B601A4
:1007B00090E00E940207E7CF912C612C712CF0E2AF
:1007C0007F1640F59B32D9F058F49032D1F0933235
:1007D000F1F09E3299F576FC3AC1689476F806C03D
:1007E0009D3291F09033C1F4689470F8F70123FDC5
:1007F000959123FF91917F019111E1CF26C06894DB
:1008000071F8689472F8F2CF689473F8EFCF689437
:1008100074F8ECCF77FC19C080ED890F8A30C8F6E8
:1008200076FE05C0959C800D1124982EDFCF659C27
:10083000800D1124682E689475F8D8CF9C3619F471
:10084000689477F8D3CF983689F2892F8F7D8554B5
:10085000833008F488C0933609F4A4C0933709F4B0
:10086000A7C0933509F4B3C0943619F0993609F04E
:10087000DDC0F80177FED3C06191719181919191B2
:100880008F01272D2F76822E97FF09C09095809596
:10089000709561957F4F8F4F9F4F689487F82AE03E
:1008A00030E0AE014F5F5F4F5A010E9432078A1954
:1008B000A82EBA2C782C86FE0CC0E89470F8A914E7
:1008C00040F484FE05C082FC03C0F82DFE7E7F2E1E
:1008D000B92C74FEF8C0FE01EA0DF11D8081803351
:1008E00009F0EAC0272D297E722E73FC0EC070FE1F
:1008F000F9C09A2CB61418F4960C9B18B62C862DB9
:100900008B196B1408F480E0B80EB61408F0ECC034
:100910006B1874FEEBC0B60180E390E00E94020702
:1009200072FE09C088E590E071FC02C088E790E0A3
:10093000B6010E940207A91408F4E5C0AA94B12CDC
:100940004FEFA41AB40ACE0101964C01A80EB91EAD
:10095000F50182915F01B60190E00E9402078A14BE
:100960009B04B1F715C00C5F1F4F8FE38983882468
:100970008394912CAE014F5F5F4F5A01E89477F852
:1009800073FC03C08614910498F181149104B9F5A5
:10099000611409F4F8CEB60180E290E00E940207EB
:1009A0006A94F6CFF801808189830E5F1F4FDFCFF5
:1009B000F801A190B1908F01692D70E076FC02C022
:1009C0006FEF7FEFC5010E94F7064C01D7CFF8010A
:1009D000A190B1908F01692D70E076FC02C06FEF9D
:1009E0007FEFC5010E94EC064C01689477F8C8CFF0
:1009F000B60180E290E00E9402076A94C3CFF5013D
:100A000077FC859177FE81915F01B60190E00E94AD
:100A1000020761106A94F1E08F1A9108B6CF6191D4
:100A20007191072E000C880B990B2ACF872CE89424
:100A300084F82AE030E0953739F1572D597F852E1B
:100A40009037A9F058F49835A9F09F36D9F0F601FF
:100A5000868197812B96EFE00C94E1089837B9F7DF
:100A600084FE02C0689482F820E130E00DC06894F2
:100A700084F8F6CF74FE03C0852F8660882E20E1AF
:100A800032E002C028E030E0F80187FE10C061913A
:100A90007191819191918F01FE0131965F01AF01BA
:100AA0000E9432078A19A82EE89487F802CF619134
:100AB000719180E090E0EFCF72FC02C0B39415CF4B
:100AC000B394B39412CF872D8678811509F40DCF96
:100AD000F5CFB60180E290E00E940207839486146D
:100AE000C0F30DCF8B2CFBCF612C13CF872D8678D5
:100AF000811509F420CF80E271FC8BE277FC8DE256
:100B0000B60190E016CFB60180E390E00E940207A4
:100B10009A9411CF8FEF9FEF9DCFA0E0B0E0E3E973
:100B2000F5E00C94C808EC016B016115710519F032
:100B3000FB01918380837E012196F7010081802F44
:100B400090E00E94CB065C01892BA9F70D3281F55C
:100B50000881219611E07E01F1E0EF1AF10843E0EF
:100B600050E060E770E0C7010E94D406892B39F598
:100B70007E0182E0E80EF11C45E050E06BE670E09B
:100B8000C7010E94D406892B11F427967E01C11457
:100B9000D10419F0F601F182E08260E070E080E8B3
:100BA0009FEF111120C060E070E080E89FE71BC05C
:100BB0000B3219F40881E701229610E0CCCF43E014
:100BC00050E068E670E0C7010E94D406892B81F4EA
:100BD000C114D10421F02296F601D183C08360E0D4
:100BE00070E080EC9FE7CDB7DEB7ECE00C94E40852
:100BF000E12CF12C20E030E0A90100530A3058F537
:100C0000E12FE260812F887012FF08C0811103C0BC
:100C1000FFEFEF1AFF0A09911E2FEFCF811519F090
:100C200081E0E81AF108A5E0B0E00E94B7089B0156
:100C3000AC01220F331F441F551F200F311D411DD2
:100C4000511D2839F9E93F074F07F9E15F0718F30C
:100C5000E12FE660E0CF0E3F29F413FD3BC0E12F0A
:100C6000E860D9CF0F7D0531A9F588818D3241F437
:100C70001061BE016E5F7F4F8981E2E0F0E007C046
:100C8000BE018B32B9F36F5F7F4FE1E0F0E080533C
:100C900095E0EB01CE1BDF0B8A30E0F4E0E8AE1606
:100CA000ECE0BE0654F49A9DF0019B9DF00D1124DA
:100CB000EE0FFF1F5F01A80EB11CEB01899180535D
:100CC0008A3008F458C014FF03C0B194A194B1084D
:100CD000EA0CFB1C11FF07C0C114D10421F02197BD
:100CE000F601D183C083CA01B9010E949507382F4C
:100CF000292FCB01A32FB22FBC01CD0113701330CC
:100D000009F490584B015C0120E030E0A9010E94F9
:100D10009007811569F1CFE9D0E0F7FE05C0F194A5
:100D2000E194F108C7E8D0E06E01F8E1CF1AD108EC
:100D300000E210E0E016F10604F5249715950795FA
:100D4000CC15DD05B9F78A2D880F8B2D881F8F3FB5
:100D500049F020E030E0A901C501B4010E949007EC
:100D6000811106C082E290E09093B9018093B801AE
:100D7000C501B40138CFBE0191CFFE012591359157
:100D800045915491C501B4010E94F6074B015C01E5
:100D9000E01AF10ACFCF91110C946308803219F058
:100DA00089508550C8F70895FB01DC01415050403F
:100DB00088F08D9181341CF08B350CF4805E659148
:100DC00061341CF06B350CF4605E861B611171F3AD
:100DD000990B0895881BFCCFFC0105906150704071
:100DE0000110D8F7809590958E0F9F1F0895FC01F4
:100DF0006150704001900110D8F7809590958E0F4A
:100E00009F1F08950F931F93CF93DF93182F092FE0
:100E1000EB018B8181FD09C01FEF0FEF812F902F18
:100E2000DF91CF911F910F91089582FF14C02E8101
:100E30003F818C819D81281739073CF4E881F98135
:100E4000CF0101969983888310838E819F810196BB
:100E50009F838E83E3CFE885F985812F0995892BC0
:100E6000A1F3DACFFA01AA27283051F1203181F11C
:100E7000E8946F936E7F6E5F7F4F8F4F9F4FAF4FA2
:100E8000B1E03ED0B4E03CD0670F781F891F9A1FB5
:100E9000A11D680F791F8A1F911DA11D6A0F711D69
:100EA000811D911DA11D20D009F468943F912AE075
:100EB000269F11243019305D3193DEF6CF0108955D
:100EC000462F4770405D4193B3E00FD0C9F7F6CF8E
:100ED000462F4F70405D4A3318F0495D31FD405256
:100EE000419302D0A9F7EACFB4E0A69597958795EC
:100EF00077956795BA95C9F70097610571050895CB
:100F00009B01AC010A2E0694579547953795279576
:100F1000BA95C9F7620F731F841F951FA01D08950E
:100F20000E94D20708F481E00895E89409C097FB75
:100F30003EF490958095709561957F4F8F4F9F4FB0
:100F40009923A9F0F92F96E9BB279395F6958795F4
:100F500077956795B795F111F8CFFAF4BB0F11F4B7
:100F600060FF1BC06F5F7F4F8F4F9F4F16C088235E
:100F700011F096E911C0772321F09EE8872F762F94
:100F800005C0662371F096E8862F70E060E02AF0D5
:100F90009A95660F771F881FDAF7880F96958795C1
:100FA00097F90895990F0008550FAA0BE0E8FEEF96
:100FB00016161706E807F907C0F012161306E4071D
:100FC000F50798F0621B730B840B950B39F40A2616
:100FD00061F0232B242B252B21F408950A2609F4F4
:100FE000A140A6958FEF811D811D08950E940908DB
:100FF0000C947D080E946F0838F00E94760820F05B
:10100000952311F00C9466080C946C0811240C9430
:10101000B1080E948E0870F3959FC1F3950F50E0C0
:10102000551F629FF001729FBB27F00DB11D639F9A
:10103000AA27F00DB11DAA1F649F6627B00DA11D40
:10104000661F829F2227B00DA11D621F739FB00DE6
:10105000A11D621F839FA00D611D221F749F332756
:10106000A00D611D231F849F600D211D822F762FEF
:101070006A2F11249F5750409AF0F1F088234AF0CC
:10108000EE0FFF1FBB1F661F771F881F9150504038
:10109000A9F79E3F510580F00C9466080C94B108A6
:1010A0005F3FE4F3983ED4F3869577956795B795BF
:1010B000F795E7959F5FC1F7FE2B880F911D9695D9
:1010C000879597F9089599278827089597F99F6735
:1010D00080E870E060E008959FEF80EC08950024C0
:1010E0000A941616170618060906089500240A948D
:1010F00012161306140605060895092E0394000C13
:1011000011F4882352F0BB0F40F4BF2B11F460FFA1
:1011100004C06F5F7F4F8F4F9F4F089557FD9058CA
:10112000440F551F59F05F3F71F04795880F97FBAB
:10113000991F61F09F3F79F0879508951216130665
:101140001406551FF2CF4695F1DF08C01616170694
:101150001806991FF1CF86957105610508940895C9
:10116000E894BB2766277727CB0197F908950E945B
:10117000F908A59F900DB49F900DA49F800D911D1F
:10118000112408952F923F924F925F926F927F9217
:101190008F929F92AF92BF92CF92DF92EF92FF9287
:1011A0000F931F93CF93DF93CDB7DEB7CA1BDB0B33
:1011B0000FB6F894DEBF0FBECDBF09942A883988D8
:1011C00048885F846E847D848C849B84AA84B984DF
:1011D000C884DF80EE80FD800C811B81AA81B981EB
:1011E000CE0FD11D0FB6F894DEBF0FBECDBFED01FF
:1011F0000895A29FB001B39FC001A39F700D811DF0
:101200001124911DB29F700D811D1124911D08950F
:04121000F894FFCF80
:101214009600960096009600000000020000000070
:10122400050100000000436F6D6D616E643A202576
:101234007300526573706F6E73653A2025730D0ADF
:10124400000D0A4A44592D343020746573740D001E
:1012540041542B44564944464243440D0A004154E8
:101264002B5645520D0A0041542B424155440D0A58
:101274000041542B524649440D0A0041542B445614
:1012840049440D0A0041542B5246430D0A0041546F
:101294002B504F57450D0A0041542B434C53530DCB
:1012A4000A00746573742025302E346C662C202556
:0812B400302E346C660A0000C4
:00000001FF
