:100000000C9452000C946F000C946F000C946F00D1
:100010000C946F000C946F000C946F000C946F00A4
:100020000C946F000C946F000C946F000C94A5025C
:100030000C946F000C946F000C9471000C946F0082
:100040000C946F000C946F000C946F000C946F0074
:100050000C946F000C946F000C946F000C946F0064
:100060000C946F000C946F004E414E494E49545908
:10007000494E46CDCCCC3D0AD7233C17B7D1387773
:10008000CC2B329595E6241FB14F0A000020410089
:1000900000C84200401C4620BCBE4CCA1B0E5AAED3
:1000A000C59D740011241FBECFEFD8E0DEBFCDBFC9
:1000B00011E0A0E0B1E0E0E6FAE102C005900D92A7
:1000C000A43BB107D9F721E0A4EBB1E001C01D9238
:1000D000A63CB207E1F70E94F0030C942E0D0C949D
:1000E00000001F921FB61F9211242F933F938F93EE
:1000F0009F9387B5815687BD8091B6019091B701D6
:1001000001969093B7018093B6012091B60130918A
:10011000B70180910601909107012817390709F46A
:10012000289A2091B6013091B701809104019091F5
:1001300005012817390709F45F9A2091B60130911B
:10014000B70180910201909103012817390709F442
:100150005E9A2091B6013091B70180910001909193
:1001600001012817390709F45D9A8091B601909131
:10017000B701803D974044F01092B7011092B6014C
:1001800028985F985E985D989F918F913F912F91ED
:100190001F901FBE1F901895F89414BC15BC16BC78
:1001A0008FE987BD85B5886085BD85B5816085BDD2
:1001B000EEE6F0E080818260808378940895E1E843
:1001C000F0E08081816080830895209184003091E7
:1001D00085008091840090918500821B930B80386C
:1001E0009E43B8F30895CF93DF93EC01209719F461
:1001F000DF91CF9108950E94E5002197F7CF8F926C
:100200009F92AF92BF92EF92FF920F931F93CF9363
:10021000DF93CDB7DEB7E2970FB6F894DEBF0FBE1F
:10022000CDBF790121E1E6E1F1E0DE019296019096
:100230000D922A95E1F719A20FE110E04A01550F3E
:10024000AA08BB081616170618061906F4F01E149D
:100250001F04DCF0C801019621E030E02C0F3D1FA7
:10026000820F931F0E947102E2960FB6F894DEBFD0
:100270000FBECDBFDF91CF911F910F91FF90EF90F7
:10028000BF90AF909F908F900895A50194010E9418
:100290003706E2E2F0E0EC0FFD1F6E0F7F1FFB015F
:1002A0008081E1E0F0E0EC0FFD1FE00FF11F8083A3
:1002B000B901CA01E114F10419F0F1E0EF1AF108F3
:1002C00001501109BFCF559A569A579A8BB1837333
:1002D0008BB9209A85B1807185B93D98459A53981C
:1002E0005B9A08950F931F93CF93DF93CDB7DEB73B
:1002F000A8970FB6F894DEBF0FBECDBF8C011F9339
:100300008F9387E291E09F938F930E947D085C9882
:100310008FE39CE90197F1F700C00000C8010E943B
:10032000BC0368E270E08E010F5F1F4FC8010E949E
:10033000D1035C9A8FE39CE90197F1F700C00000BC
:100340001F930F9383E391E09F938F930E947D0807
:100350000FB6F894DEBF0FBECDBFA8960FB6F894C7
:10036000DEBF0FBECDBFDF91CF911F910F910895DA
:100370009C0181E086BB86E090E019992BC081E06A
:1003800086BB86E090E0199B2FC081E086BB409140
:1003900084005091850060E070E080E090E0E1E052
:1003A000821793078CF120918400309185002417E7
:1003B000350710F461507109072E000C880B990B5A
:1003C000CB0177276627241B350B620F731F811D16
:1003D000911D0895B09BD1CF41E046BB019769F6CE
:1003E00060E070E0CB010895B09BCDCF41E046BB0B
:1003F0000197B1F3C8CFB09B07C0E6BB6F5F7F4FDB
:100400006130F4E07F0764F71999F5CF199B02C0BA
:100410000196C6CFB09BFACFE6BB6F5F7F4F6130CE
:10042000F4E07F079CF3DCCF80E480937C0087E8D6
:1004300080937A00089520917C00287F8770992707
:10044000822B80937C0080917A00806480937A0074
:1004500080917A0086FDFCCF8091780090917900A0
:10046000089588E091E09093C1018093C001519A72
:1004700050981092C50080E18093C400E1ECF0E058
:1004800080818860808380818061808386E0809322
:10049000C200E0ECF0E0808182608083089590915A
:1004A000C00095FFFCCF8093C6000895CF93C82F5E
:1004B0008A3019F48DE00E944F028C2F0E944F0267
:1004C00080E090E0CF9108958091C00087FFFCCF3D
:1004D0008091C60008958091C000881F8827881FDA
:1004E0000895CF93DF93EC018991811103C0DF91CF
:1004F000CF9108950E944F02F7CFCF92DF92EF92F3
:10050000FF921F93CF93DF93EC01E12CF12C61500C
:1005100071096B010E946402182F0E944F021A3069
:1005200051F41882C701DF91CF911F91FF90EF9096
:10053000DF90CF9008951D30A1F319938FEFE81A43
:10054000F80ACE14DF0431F7ECCF1F921FB61F92CA
:1005500011248F939F9380918800909189008F52EE
:100560009F4F90938900809388008091BD018115F1
:1005700029F08091BD018F5F8093BD018091BC0106
:10058000811529F08091BC018F5F8093BC0180911F
:10059000BD01843209F46FC060F58C3009F459C094
:1005A000F0F4811509F447C0843009F44AC0809101
:1005B000BC018A3209F4B7C008F08FC0823109F457
:1005C000A7C008F080C0823009F4A6C08A3009F4C0
:1005D00099C09F918F911F901FBE1F9018958431D5
:1005E00009F441C08C3119F793B18091BA0194702C
:1005F00036C08C3309F452C078F48C3209F445C00B
:100600008433A9F683B19091BA0182FB882780F9DF
:100610008295880F807E23C0843409F44AC08C34CC
:1006200031F61A9B10C08091BA018093B90181E024
:100630008093BB0108C01A99BACF81E08093BD01B5
:10064000B6CF1A9B03C01092BD01B1CF1092BA0170
:10065000AECF83B19091BA0182FB882780F9892BB4
:100660008093BA01A4CF83B19091BA0182FB88270D
:1006700080F9880FF4CF83B19091BA0182FB88276B
:1006800080F9880F880F880FEACF83B19091BA0163
:1006900082FB882780F98295807FE1CF83B190919A
:1006A000BA0182FB882780F98295880F880F807CA9
:1006B000D6CF83B19091BA0182FB882780F98795C4
:1006C00088278795CCCF8A3149F1823209F081CFD2
:1006D0008091B80183FF20C019C0823471F150F4B9
:1006E000823331F18A3309F074CF8091B80186FFEB
:1006F00013C00CC08A3451F0823509F06ACF1092D1
:10070000BC0167CF8091B80180FF06C0299A61CFF4
:100710008091B80181FDFACF29985BCF8091B80113
:1007200082FFFACFF3CF8091B80184FFF5CFEECFEF
:100730008091B80185FFF0CFE9CF8091B80187FFA4
:10074000EBCFE4CF219A299A549A5C9AE1E8F0E041
:10075000808181608083EFE6F0E080818260808329
:10076000789408959091BC019111FCCF8093B801C9
:1007700081E08093BC010895CF93DF93EC018991D0
:10078000811103C0DF91CF9108950E94B203F7CF8A
:100790008091BB018130E1F71092BB018091B901DA
:1007A0000895EF92FF920F931F93CF93DF93EC0185
:1007B00000E010E0615071097B010E94C8038A309B
:1007C00041F41882DF91CF911F910F91FF90EF902C
:1007D0000895E016F106A9F389930F5F1F4FEDCF3F
:1007E000CF93DF93CDB7DEB7CE55D1090FB6F894CE
:1007F000DEBF0FBECDBF0E9463010E94CC000E94ED
:10080000DF000E9431020E94A2032FEF89E698E1E7
:10081000215080409040E1F700C0000082E491E068
:100820000E94930881E591E00E9472018FE591E0BA
:100830000E94720188E691E00E94720182E791E0D5
:100840000E9472018CE791E00E94720186E891E0BB
:100850000E9472018FE891E00E94720189E991E0A3
:100860000E947201A12CB12C6D961FAE1EAE6D9729
:100870008091BB018130B1F560E570E0CE01019659
:100880000E94D10385E0FE013196DE01AA5ABF4FD6
:1008900001900D928A95E1F7888562968FAF6297F5
:1008A000898563968FAF63978A8564968FAF6497C7
:1008B0008B8565968FAF6597CE018A5A9F4F0E94B0
:1008C0007908762E672E582E492ECE018F5A9F4FCB
:1008D0000E9479086E966FAF6E976F967FAF6F9795
:1008E000982E892E2CE730EF41EC5FE3D301F20123
:1008F0006B2F762D8F2F942D0E940C081B016C01FD
:10090000762E632C582E4D2C2CE730EF41EC5FE314
:100910006E96BFAD6E976F96AFAD6F97F4016B2F6C
:100920007A2F8F2F982D0E940C086E966FAF6E97BE
:100930006F967FAF6F97982E892E9F938F936F96A8
:100940002FAD6F972F936E968FAD6E978F93DF922B
:10095000CF923F922F9283EA91E09F938F930E94D0
:100960007D080FB6F894DEBF0FBECDBF26E636E693
:1009700046E250E46E96BFAD6E976F96AFAD6F973F
:10098000F4016B2F7A2F8F2F9E2F0E9407081816C5
:100990000CF096C020E030E040E250E4D301F201D8
:1009A0006B2F7A2F8F2F9E2F0E94780620E030E049
:1009B00040E250E40E94EA0620E030E04AEF54E4CE
:1009C0000E940C087B018C01AA24A394B12C91E015
:1009D0006C969FAF6C976D961FAE6D9726E636E6C8
:1009E00046E250E4622D732D8C2D9D2D0E94070848
:1009F00018160CF0B8C020E030E040E750E4622D5B
:100A0000732D8C2D9D2D0E94E50687FF90C020E060
:100A100030E040E250E4622D732D8C2D9D2D0E941C
:100A2000780620E030E040EA5FE30E94EA069B019E
:100A3000AC0160E070E080E89FE30E9478062E2D14
:100A40003F2D402F512F0E940C081B016C0181E0AB
:100A5000A816B10409F0D1C0222D332D4C2D5D2DE7
:100A600060E072E48CE996E40E9478060E945C07DC
:100A7000462F572F5093070140930601109205010E
:100A8000109204016D968EAD9FAD6D97019709F0A0
:100A9000D0C02E2D3F2D402F512F60E072E48CE905
:100AA00096E40E9478060E945C07462F572F5093C9
:100AB0000101409300011092030110920201D8CE6F
:100AC0002AE939E949E150E46E96BFAD6E976F9619
:100AD000AFAD6F97F4016B2F7A2F8F2F9E2F0E944F
:100AE000E50687FF1FC020E030E040E250E4D3017C
:100AF000F2016B2F762D8F2F942D0E94EA0620E0B5
:100B000030E04AEF54E40E940C087B018C01AA24D7
:100B1000AA94BA2C2FEF6C962FAF6C976D962FAFCF
:100B20006D975CCFE12CF12C00E010E057CF20E076
:100B300030E040E750E4622D732D8C2D9D2D0E94F6
:100B4000780620E030E040EA5FE30E94EA062E2DBE
:100B50003F2D402F512F0E940C081B016C01B194B6
:100B6000A194B10874CF2AE939E949E150E4622D32
:100B7000732D8C2D9D2D0E94E50687FF3BC020E044
:100B800030E040EA5FE3622D732D8C2D9D2D0E9495
:100B9000070820E030E040EA5FE3622D732D18166D
:100BA0009CF48C2D9D2D0E94780620E030E040EAD8
:100BB0005FE30E94EA06170168019701A8010E94FD
:100BC0000C087B018C0143CF8C2D9D2D0E94EA06E1
:100BD0009B01AC0160E070E080E89FE30E94780632
:100BE000170168019701A8010E940C08B194A19413
:100BF000B108E7CF170168012ACF9FEFA916B90600
:100C000009F040CF222D332D4C2D5D2D60E070E298
:100C10008AEF94E40E9478060E945C07462F572FC3
:100C200050930501409304011092070110920601B0
:100C300029CF6D968EAD9FAD6D97019609F018CEB8
:100C40002E2D3F2D402F512F60E070E28AEF94E46B
:100C50000E9478060E945C07462F572F509303018D
:100C600040930201109201011092000101CE052E65
:100C700097FB1EF400940E944E0657FD07D00E9479
:100C8000560607FC03D04EF40C944E065095409542
:100C9000309521953F4F4F4F5F4F08959095809528
:100CA000709561957F4F8F4F9F4F0895A1E21A2E47
:100CB000AA1BBB1BFD010DC0AA1FBB1FEE1FFF1F00
:100CC000A217B307E407F50720F0A21BB30BE40B50
:100CD000F50B661F771F881F991F1A9469F7609597
:100CE0007095809590959B01AC01BD01CF01089551
:100CF0005058BB27AA270E9490060C94CD070E944B
:100D0000BF0738F00E94C60720F039F49F3F19F45E
:100D100026F40C94BC070EF4E095E7FB0C94B607A0
:100D2000E92F0E94DE0758F3BA176207730784079A
:100D3000950720F079F4A6F50C9400080EF4E095E0
:100D40000B2EBA2FA02D0B01B90190010C01CA0185
:100D5000A0011124FF27591B99F0593F50F4503E30
:100D600068F11A16F040A22F232F342F4427585F22
:100D7000F3CF469537952795A795F0405395C9F73A
:100D80007EF41F16BA0B620B730B840BBAF09150F2
:100D9000A1F0FF0FBB1F661F771F881FC2F70EC091
:100DA000BA0F621F731F841F48F487957795679564
:100DB000B795F7959E3F08F0B0CF9395880F08F050
:100DC0009927EE0F9795879508950E94920708F44A
:100DD00081E008950E94FE060C94CD070E94C6078C
:100DE00058F00E94BF0740F029F45F3F29F00C94AF
:100DF000B60751110C9401080C94BC070E94DE0741
:100E000068F39923B1F3552391F3951B550BBB2739
:100E1000AA2762177307840738F09F5F5F4F220F7E
:100E2000331F441FAA1FA9F335D00E2E3AF0E0E875
:100E300032D091505040E695001CCAF72BD0FE2FBF
:100E400029D0660F771F881FBB1F26173707480753
:100E5000AB07B0E809F0BB0B802DBF01FF2793580B
:100E60005F4F3AF09E3F510578F00C94B6070C9412
:100E700001085F3FE4F3983ED4F386957795679534
:100E8000B795F7959F5FC9F7880F911D9695879540
:100E900097F90895E1E0660F771F881FBB1F62175F
:100EA00073078407BA0720F0621B730B840BBA0B1D
:100EB000EE1F88F7E09508950E9463076894B111CA
:100EC0000C94010808950E94E60788F09F5798F057
:100ED000B92F9927B751B0F0E1F0660F771F881F3F
:100EE000991F1AF0BA95C9F714C0B13091F00E9459
:100EF0000008B1E008950C940008672F782F882728
:100F0000B85F39F0B93FCCF3869577956795B3957F
:100F1000D9F73EF490958095709561957F4F8F4FEE
:100F20009F4F0895990F0008550FAA0BE0E8FEEFB8
:100F300016161706E807F907C0F012161306E4079D
:100F4000F50798F0621B730B840B950B39F40A2696
:100F500061F0232B242B252B21F408950A2609F474
:100F6000A140A6958FEF811D811D089597F99F6778
:100F700080E870E060E008959FEF80EC0895002421
:100F80000A941616170618060906089500240A94EE
:100F900012161306140605060895092E0394000C74
:100FA00011F4882352F0BB0F40F4BF2B11F460FF03
:100FB00004C06F5F7F4F8F4F9F4F089557FD90582C
:100FC000440F551F59F05F3F71F04795880F97FB0D
:100FD000991F61F09F3F79F08795089512161306C7
:100FE0001406551FF2CF4695F1DF08C016161706F6
:100FF0001806991FF1CF869571056105089408952B
:10100000E894BB2766277727CB0197F908950E94BC
:10101000920708F48FEF08950E941F080C94CD07E3
:101020000E94BF0738F00E94C60720F0952311F0F8
:101030000C94B6070C94BC0711240C9401080E9470
:10104000DE0770F3959FC1F3950F50E0551F629F27
:10105000F001729FBB27F00DB11D639FAA27F00D11
:10106000B11DAA1F649F6627B00DA11D661F829F38
:101070002227B00DA11D621F739FB00DA11D621F1D
:10108000839FA00D611D221F749F3327A00D611D3A
:10109000231F849F600D211D822F762F6A2F11241C
:1010A0009F5750409AF0F1F088234AF0EE0FFF1F4F
:1010B000BB1F661F771F881F91505040A9F79E3FA6
:1010C000510580F00C94B6070C9401085F3FE4F3DF
:1010D000983ED4F3869577956795B795F795E795FC
:1010E0009F5FC1F7FE2B880F911D9695879597F905
:1010F0000895662777270C949A0AA0E0B0E0E3E809
:10110000F8E00C94F80CAE014B5F5F4FFA0161916F
:101110007191AF018091C0019091C1010E94BF08FF
:10112000E2E00C94140D0F931F93CF93DF93E091A3
:10113000C001F091C101238100E010E021FD0EC04B
:101140000FEF1FEFC801DF91CF911F910F9108950D
:101150000995892B11F00FEF1FEFCE01EC0189915A
:101160006091C0017091C101DB011896ED91FC9175
:101170008111EECF8AE00995892B21F3E1CFABE015
:10118000B0E0E5ECF8E00C94EB0C6C017B018A011B
:10119000FC0117821682838181FFC9C19AE0592E12
:1011A000F6012381F70123FD859123FF81917F01C2
:1011B000811509F459C1853239F423FD959123FF36
:1011C00091917F01953229F4B60190E00E940F0CB5
:1011D000E7CF912C612C712CF0E27F1640F59B3209
:1011E000D9F058F49032D1F09332F1F09E3299F563
:1011F00076FC3AC1689476F806C09D3291F090333F
:10120000C1F4689470F8F70123FD959123FF919143
:101210007F019111E1CF26C0689471F8689472F84B
:10122000F2CF689473F8EFCF689474F8ECCF77FC42
:1012300019C080ED890F8A30C8F676FE05C0959CEE
:10124000800D1124982EDFCF659C800D1124682E0F
:10125000689475F8D8CF9C3619F4689477F8D3CF92
:10126000983689F2892F8F7D8554833008F488C0A1
:10127000933609F4A4C0933709F4A7C0933509F451
:10128000B3C0943619F0993609F0DDC0F80177FE45
:10129000D3C061917191819191918F01272D2F760A
:1012A000822E97FF09C090958095709561957F4F2C
:1012B0008F4F9F4F689487F82AE030E0AE014F5F70
:1012C0005F4F5A010E943F0C8A19A82EBA2C782C25
:1012D00086FE0CC0E89470F8A91440F484FE05C0A2
:1012E00082FC03C0F82DFE7E7F2EB92C74FEF8C060
:1012F000FE01EA0DF11D8081803309F0EAC0272D3F
:10130000297E722E73FC0EC070FEF9C09A2CB614A2
:1013100018F4960C9B18B62C862D8B196B1408F4B8
:1013200080E0B80EB61408F0ECC06B1874FEEBC089
:10133000B60180E390E00E940F0C72FE09C088E5C0
:1013400090E071FC02C088E790E0B6010E940F0CAB
:10135000A91408F4E5C0AA94B12C4FEFA41AB40A5A
:10136000CE0101964C01A80EB91EF50182915F01D4
:10137000B60190E00E940F0C8A149B04B1F715C0CF
:101380000C5F1F4F8FE3898388248394912CAE01D7
:101390004F5F5F4F5A01E89477F873FC03C08614DF
:1013A000910498F181149104B9F5611409F4F8CE0F
:1013B000B60180E290E00E940F0C6A94F6CFF8012B
:1013C000808189830E5F1F4FDFCFF801A190B1901C
:1013D0008F01692D70E076FC02C06FEF7FEFC501D1
:1013E0000E94040C4C01D7CFF801A190B1908F015D
:1013F000692D70E076FC02C06FEF7FEFC5010E949F
:10140000F90B4C01689477F8C8CFB60180E290E000
:101410000E940F0C6A94C3CFF50177FC859177FE8B
:1014200081915F01B60190E00E940F0C61106A94F7
:10143000F1E08F1A9108B6CF61917191072E000CDF
:10144000880B990B2ACF872CE89484F82AE030E0A7
:10145000953739F1572D597F852E9037A9F058F4DB
:101460009835A9F09F36D9F0F601868197812B96A1
:10147000EFE00C94070D9837B9F784FE02C068942A
:1014800082F820E130E00DC0689484F8F6CF74FE55
:1014900003C0852F8660882E20E132E002C028E05C
:1014A00030E0F80187FE10C06191719181919191B6
:1014B0008F01FE0131965F01AF010E943F0C8A1936
:1014C000A82EE89487F802CF6191719180E090E0B6
:1014D000EFCF72FC02C0B39415CFB394B39412CF84
:1014E000872D8678811509F40DCFF5CFB60180E2FE
:1014F00090E00E940F0C83948614C0F30DCF8B2CC8
:10150000FBCF612C13CF872D8678811509F420CF6E
:1015100080E271FC8BE277FC8DE2B60190E016CFA1
:10152000B60180E390E00E940F0C9A9411CF8FEFE8
:101530009FEF9DCFA0E0B0E0E0EAFAE00C94EE0C63
:10154000EC016B016115710519F0FB01918380833A
:101550007E012196F7010081802F90E00E94D80B38
:101560005C01892BA9F70D3281F50881219611E0E4
:101570007E01F1E0EF1AF10843E050E060E770E02F
:10158000C7010E94E10B892B39F57E0182E0E80E4C
:10159000F11C45E050E06BE670E0C7010E94E10BF2
:1015A000892B11F427967E01C114D10419F0F6019C
:1015B000F182E08260E070E080E89FEF111120C0CE
:1015C00060E070E080E89FE71BC00B3219F40881EF
:1015D000E701229610E0CCCF43E050E068E670E0EF
:1015E000C7010E94E10B892B81F4C114D10421F0C1
:1015F0002296F601D183C08360E070E080EC9FE723
:10160000CDB7DEB7ECE00C940A0DE12CF12C20E014
:1016100030E0A90100530A3058F5E12FE260812F34
:10162000887012FF08C0811103C0FFEFEF1AFF0A94
:1016300009911E2FEFCF811519F081E0E81AF1080A
:10164000A5E0B0E00E94DD0C9B01AC01220F331F2E
:10165000441F551F200F311D411D511D2839F9E927
:101660003F074F07F9E15F0718F3E12FE660E0CF8E
:101670000E3F29F413FD3BC0E12FE860D9CF0F7D69
:101680000531A9F588818D3241F41061BE016E5F8C
:101690007F4F8981E2E0F0E007C0BE018B32B9F3F1
:1016A0006F5F7F4FE1E0F0E0805395E0EB01CE1BF0
:1016B000DF0B8A30E0F4E0E8AE16ECE0BE0654F44E
:1016C0009A9DF0019B9DF00D1124EE0FFF1F5F010D
:1016D000A80EB11CEB01899180538A3008F458C0E0
:1016E00014FF03C0B194A194B108EA0CFB1C11FFD4
:1016F00007C0C114D10421F02197F601D183C08322
:10170000CA01B9010E949D0C382F292FCB01A32FAC
:10171000B22FBC01CD011370133009F490584B0166
:101720005C0120E030E0A9010E94E506811569F125
:10173000CFE9D0E0F7FE05C0F194E194F108C7E8E5
:10174000D0E06E01F8E1CF1AD10800E210E0E01617
:10175000F10604F5249715950795CC15DD05B9F725
:101760008A2D880F8B2D881F8F3F49F020E030E0B5
:10177000A901C501B4010E94E506811106C082E2FB
:1017800090E09093C5018093C401C501B40138CFA6
:10179000BE0191CFFE012591359145915491C5012E
:1017A000B4010E940C084B015C01E01AF10ACFCF92
:1017B00091110C94DA0C803219F089508550C8F7D9
:1017C0000895FB01DC014150504088F08D91813437
:1017D0001CF08B350CF4805E659161341CF06B3528
:1017E0000CF4605E861B611171F3990B0895881BE0
:1017F000FCCFFC010590615070400110D8F7809536
:1018000090958E0F9F1F0895FC01615070400190CC
:101810000110D8F7809590958E0F9F1F08950F9314
:101820001F93CF93DF93182F092FEB018B8181FD3D
:1018300009C01FEF0FEF812F902FDF91CF911F91E4
:101840000F91089582FF14C02E813F818C819D816C
:10185000281739073CF4E881F981CF010196998373
:10186000888310838E819F8101969F838E83E3CF2F
:10187000E885F985812F0995892BA1F3DACFFA0143
:10188000AA27283051F1203181F1E8946F936E7FBF
:101890006E5F7F4F8F4F9F4FAF4FB1E03ED0B4E0B0
:1018A0003CD0670F781F891F9A1FA11D680F791FF1
:1018B0008A1F911DA11D6A0F711D811D911DA11D02
:1018C00020D009F468943F912AE0269F1124301912
:1018D000305D3193DEF6CF010895462F4770405DAD
:1018E0004193B3E00FD0C9F7F6CF462F4F70405D5C
:1018F0004A3318F0495D31FD4052419302D0A9F7B7
:10190000EACFB4E0A6959795879577956795BA95B0
:10191000C9F700976105710508959B01AC010A2E76
:1019200006945795479537952795BA95C9F7620F4D
:10193000731F841F951FA01D0895E89409C097FB8D
:101940003EF490958095709561957F4F8F4F9F4F96
:101950009923A9F0F92F96E9BB279395F6958795DA
:1019600077956795B795F111F8CFFAF4BB0F11F49D
:1019700060FF1BC06F5F7F4F8F4F9F4F16C0882344
:1019800011F096E911C0772321F09EE8872F762F7A
:1019900005C0662371F096E8862F70E060E02AF0BB
:1019A0009A95660F771F881FDAF7880F96958795A7
:1019B00097F908959927882708950E941F0DA59FDC
:1019C000900DB49F900DA49F800D911D112408953A
:1019D0002F923F924F925F926F927F928F929F923F
:1019E000AF92BF92CF92DF92EF92FF920F931F932D
:1019F000CF93DF93CDB7DEB7CA1BDB0B0FB6F894DE
:101A0000DEBF0FBECDBF09942A88398848885F841D
:101A10006E847D848C849B84AA84B984C884DF808E
:101A2000EE80FD800C811B81AA81B981CE0FD11D72
:101A30000FB6F894DEBF0FBECDBFED010895A29F93
:101A4000B001B39FC001A39F700D811D1124911D92
:101A5000B29F700D811D1124911D0895F894FFCF40
:101A6000960096009600960000000002000000001C
:101A70005602000000003031323334353637383901
:101A800041424344454600436F6D6D616E643A20A8
:101A9000257300526573706F6E73653A2025730D60
:101AA0000A000D0A4A44592D343020746573740DB0
:101AB0000041542B44564944424244420D0A0041DD
:101AC000542B5645520D0A0041542B424155440DAA
:101AD0000A0041542B524649440D0A0041542B44FC
:101AE0005649440D0A0041542B5246430D0A004109
:101AF000542B504F57450D0A0041542B434C535320
:101B00000D0A0025302E34662C2025302E34662018
:041B10000D0A0000BA
:00000001FF
